:020000005F2C73
:10000800FF00030E8301A6000A08A7008A018B1CC3
:100018000E288B1027088A00260E8300FF0E7F0EFD
:020028000900CD
:10002A00831203132230FC00F801F901FA01FB01E3
:10003A00FC0303194B280310FB0CFA0CF90CF80CFF
:10004A00F30CF20CF10CF00C031C1D28FC03031931
:10005A003D287408F80775080318750FF90776081C
:10006A000318760FFA0777080318770FFB0721287A
:10007A007408F80775080318750FF9077608031846
:0E008A00760FFA0777080318770FFB070800B8
:1000980040308312F0001F30F100F201F301080034
:1000A8008312B603B6033608003C03186028B6036B
:1000B80000000000000057280000000000000000B9
:0400C800000008002C
:1000CC0083120313FB01FA01F901F801A001730D6E
:1000DC00F80D7408F8027508031C750FF902760800
:1000EC00031C760FFA027708031C770FFB02000142
:1000FC00031C0130A002F30D0730FC00730DF80D4A
:10010C00F90DFA0DFB0DA00D7408731C9F28F80255
:10011C007508031C750FF9027608031C760FFA029A
:10012C007708031C770FFB020001031C0130A002AF
:10013C00B028F80775080318750FF9077608031827
:10014C00760FFA0777080318770FFB0700010318DF
:10015C000130A007F30DFC0B8428720DF80DF90D7E
:10016C00FA0DFB0DA00D7408731CCE28F80275084F
:10017C00031C750FF9027608031C760FFA02770838
:10018C00031C770FFB020001031C0130A002DF28C7
:10019C00F80775080318750FF90776080318760F1A
:1001AC00FA0777080318770FFB07000103180130D3
:1001BC00A007F20D0730FC00720DF80DF90DFA0DC9
:1001CC00FB0DA00D7408721CFD28F8027508031CA9
:1001DC00750FF9027608031C760FFA027708031CD8
:1001EC00770FFB020001031C0130A0020E29F80757
:1001FC0075080318750FF90776080318760FFA07B8
:10020C0077080318770FFB07000103180130A007CC
:10021C00F20DFC0BE228710DF80DF90DFA0DFB0D2A
:10022C00A00D7408721C2C29F8027508031C750F9C
:10023C00F9027608031C760FFA027708031C770F75
:10024C00FB020001031C0130A0023D29F8077508D0
:10025C000318750FF90776080318760FFA07770855
:10026C000318770FFB07000103180130A007F10DED
:10027C000730FC00710DF80DF90DFA0DFB0DA00DFA
:10028C007408711C5B29F8027508031C750FF902C0
:10029C007608031C760FFA027708031C770FFB0213
:1002AC000001031C0130A0026C29F8077508031823
:1002BC00750FF90776080318760FFA0777080318F5
:1002CC00770FFB07000103180130A007F10DFC0BA1
:1002DC004029700DF80DF90DFA0DFB0DA00D7408E9
:1002EC00711C8A29F8027508031C750FF90276082F
:1002FC00031C760FFA027708031C770FFB02000130
:10030C00031C0130A0029B29F80775080318750F10
:10031C00F90776080318760FFA0777080318770F92
:10032C00FB07000103180130A007F00D0730FC009B
:10033C00700DF80DF90DFA0DFB0DA00D7408701C65
:10034C00B929F8027508031C750FF9027608031C0D
:10035C00760FFA027708031C770FFB020001031CCF
:10036C000130A002CA29F80775080318750FF907A0
:10037C0076080318760FFA0777080318770FFB0730
:10038C00000103180130A007F00DFC0B9E2970181A
:10039C00DD297408F80775080318750FF907760836
:1003AC000318760FFA0777080318770FFB07080076
:1003BC0083120313F801F9011030FC00710DF80DD4
:1003CC00F90D7408F8027508031C750FF90203186F
:1003DC00F6297408F80775080318750FF907031048
:0A03EC00F00DF10DFC0BE4290800F0
:1003F6004C20E830F4000330F500F601F701152033
:100406007008B2007108B3007208B4007308B50032
:100416002A08F4002B08F500F601F701662070089B
:10042600B2007108B3007208B4007308B500700812
:10043600F5007108F6007208F7007308F800F80C6A
:10044600F70CF60CF50CF813F80CF70CF60CF50C8B
:10045600F8137508F0007608F1007708F2007808BE
:10046600F300F30CF20CF10CF00CF3137008AE0071
:100476007108AF004C202C08F4002D08F500F60199
:10048600F70115202E08F9002F08FA00FB01FC01E0
:100496000330F8007908F4007A08F5007B08F600C6
:1004A6007C08F700780803195F2AF40DF50DF60DA0
:1004B600F70D7410FF3E562A66207008B2007108C8
:1004C600B3007208B4007308B5000A30F4000030B7
:1004D600F5002E08F0002F08F100DE217008AE00AE
:1004E6007108AF0000307102031D7B2A03307002D1
:1004F60003187E2ACB2A250884003508003C031DF4
:100506008E2A3408003C031D8E2A3308003C031D46
:100516008E2A3208003C0318C92A240880042F08B2
:100526000319A52AB001B10100303102031D9D2A2D
:100536002F0830020318A52AB6015420B00A031961
:10054600B10A972A2E08B6005420210880052F08E4
:100556000319BD2AB001B10100303102031DB52ACD
:100566002F0830020318BD2AB6015420B00A031919
:10057600B10AAF2A2E08B60054200130B202031C7D
:10058600B302031CB402031CB502802A21088005AD
:0205960008005B
:1005980020308312AA000630AB007D30AC0000305A
:0605A800AD00FB2108007C
:1005AE002D308312AA000830AB007D30AC00003035
:0605BE00AD00FB21080066
:1005C40075308312AA000530AB00FA30AC00AD01DF
:0405D400FB210800FF
:1005D8004D308312AA000A30AB007D30AC000030E9
:0605E800AD00FB2108003C
:1005EE0048308312AA000730AB007D30AC000030DB
:0605FE00AD00FB21080026
:1006040075308312AA000530AB007D30AC00003099
:06061400AD00FB2108000F
:10061A00E0308312AA000630AB007D30AC00003017
:06062A00AD00FB210800F9
:10063000E0308312AA000630AB00FA30AC00AD0106
:04064000FB21080092
:1006440048308312AA000730AB00FA30AC00AD0189
:04065400FB2108007E
:100658005A308312AA001030AB007D30AC00003055
:06066800AD00FB210800BB
:10066E002D308312AA000930AB007D30AC00003073
:06067E00AD00FB210800A5
:10068400DC308312AA000430AB007D30AC000030B3
:06069400AD00FB2108008F
:10069A0016308312AA000430AB007D30AC00003063
:0606AA00AD00FB21080079
:1006B00040308312AA000C30AB007D30AC0000301B
:0606C000AD00FB21080063
:1006C6002D308312AA000830AB00FA30AC00AD0121
:0406D600FB210800FC
:1006DA0026308312AA000530AB007D30AC00003012
:0606EA00AD00FB21080039
:1006F00083120514051685160223CC220D23F7223A
:10070000D7228230FC00DD30FD00FD0B852BFC0B79
:10071000852B000000000510051285120D23022311
:100720004130FC00EE30FD00FD0B942BFC0B942BB4
:100730000000D7224130FC00EE30FD00FD0B9E2B67
:10074000FC0B9E2B000022234130FC00EE30FD000C
:10075000FD0BA82BFC0BA82B0000CC2205140516C2
:1007600085160630FB001330FC00AD30FD00FD0B9C
:10077000B72BFC0BB72BFB0BB72B000000000510B1
:1007800005128512F7224130FC00EE30FD00FD0B12
:10079000C72BFC0BC72B0000CC226D234130FC0083
:1007A000EE30FD00FD0BD22BFC0BD22B0000F7220C
:1007B0004130FC00EE30FD00FD0BDC2BFC0BDC2B94
:1007C0000000182302230514051685160630FB00C9
:1007D0001330FC00AD30FD00FD0BEC2BFC0BEC2BC3
:1007E000FB0BEC2B000000000510051285124223C4
:1007F0003723D722F7220D23F72263230223E22295
:100800000514051685160D23F7220D230223F72262
:100810000D2302233723632363236323051005126B
:100820008512D7223723EC2258232C238230FC0058
:10083000DD30FD00FD0B1A2CFC0B1A2C0000000013
:100840000514051685164D234D23F7220D23CC22C2
:0A0850000D23E222E222E22208005A
:10085A0083122808A5002908F1000130F000710868
:10086A0003193B2CF00D7010FF3E352C7008A400C4
:10087A00F0097008A10080302807840070088005FC
:08088A008413700880050800CA
:10089200831285018B019001FF3099008316990123
:1008A20083129F0183169F018E010C3085008030D8
:0C08B20081008B170B168C018B100800C6
:1008BE00492405308312A8000130A9002D244830A8
:1008CE00AA000730AB00F430AC000130AD00FB21C4
:1008DE00630078230510051285120330FB000830E3
:1008EE00FC007730FD00FD0B7A2CFC0B7A2CFB0BF9
:1008FE007A2C0514051685160330FB000830FC0013
:10090E007730FD00FD0B892CFC0B892CFB0B892C01
:10091E000510051285120330FB000830FC007730FD
:10092E00FD00FD0B982CFC0B982CFB0B982C051442
:10093E00051685160330FB000830FC007730FD00ED
:10094E00FD0BA72CFC0BA72CFB0BA72C05100512DF
:10095E0085120330FB000830FC007730FD00FD0BE4
:0E096E00B62CFC0BB62CFB0BB62C6F2CBD2C44
:02400E00D400DC
:00000001FF
